:100000000C9434000C9451000C9451000C94510049
:100010000C9451000C9451000C94F8010C94510074
:100020000C9451000C9451000C9451000C9451000C
:100030000C9451000C9451000C9451000C945100FC
:100040000C9451000C9451000C9451000C945100EC
:100050000C9451000C9451000C9451000C945100DC
:100060000C9451000C94510011241FBECFEFD8E026
:10007000DEBFCDBF1CE0A0E0B1E0E6E5F8E002C0E5
:1000800005900D92AC3DB107D9F72CE0ACEDBCE08A
:1000900001C01D92A13EB207E1F70E9433030C9408
:1000A00029040C9400001092C50087E68093C400D8
:1000B00088E18093C10086E08093C200089590910A
:1000C000C00095FFFCCF8093C60008958091C000CA
:1000D00087FFFCCF8091C60008958091C000881FE3
:1000E0008827881F08958091C00087FD07C08FE38F
:1000F0009CE90197F1F700C0000008958091C600C7
:10010000F2CFCF93DF93EC018991811103C0DF918E
:10011000CF9108950E945F00F7CF0E9481008DE08B
:100120000E945F008AE00C945F001F93CF93DF93DF
:10013000CDB7DEB761970FB6F894DEBF0FBECDBF67
:10014000182F81E1E3E0F1E0DE01119601900D92BC
:100150008A95E1F780E091E00E948100E12FE2952D
:10016000EF7081E090E08C0F9D1F8E0F911DFC01C0
:1001700080810E945F00E12FEF7081E090E08C0FA2
:100180009D1F8E0F911DFC01808161960FB6F89422
:10019000DEBF0FBECDBFDF91CF911F910C945F00EA
:1001A0000F931F93CF93DF93CDB7DEB761970FB651
:1001B000F894DEBF0FBECDBF8C0180E091E00E94BD
:1001C000810081E1E3E0F1E0DE01119601900D9202
:1001D0008A95E1F7F801EF2FFF27E295EF7081E0B4
:1001E00090E08C0F9D1FE80FF91F80810E945F0037
:1001F000E12FFF27EF70FF2781E090E08C0F9D1F1C
:10020000E80FF91F80810E945F00F80124E0F69555
:10021000E7952A95E1F7EF70FF2781E090E08C0FDA
:100220009D1FE80FF91F80810E945F000F7011274A
:10023000E1E0F0E0EC0FFD1F0E0F1F1FF8018081C1
:1002400061960FB6F894DEBF0FBECDBFDF91CF91A0
:100250001F910F910C945F00F999FECF92BD81BD63
:1002600060BDF894FA9AF99A78940895F999FECFB6
:1002700092BD81BDF89A80B50895EF92FF920F93D9
:100280001F93CF93DF938C01EB017B01E40EF11CF4
:10029000CE15DF0539F4DF91CF911F910F91FF90BB
:1002A000EF9008956991C8010E942C010F5F1F4FC4
:1002B000EFCFCF92DF92EF92FF920F931F93CF93E6
:1002C000DF936C018B01E42EF12CD0E0C0E0CE1561
:1002D000DF0549F4DF91CF911F910F91FF90EF90CF
:1002E000DF90CF900895C6018C0F9D1F0E943601AC
:1002F000F80181938F012196EACF14BEF894E0E6CD
:10030000F0E088E180838FE4808378940895F89406
:1003100084B7877F84BFE0E6F0E088E180831082C5
:1003200078940895A89508958DB79EB708950F9372
:100330001F93CF93DF93182F0E949401D82FC92FBA
:1003400004B7F8946EED90E080E00E942C01612FDC
:1003500081E090E00E942C016D2F82E090E00E94ED
:100360002C016C2F83E090E00E942C01602F84E030
:1003700090E00E942C01F999FECFDF91CF911F915F
:100380000F9108951F93CF93DF93EC0190E080E0ED
:100390000E943601888381E090E00E9436018983C3
:1003A00082E090E00E943601182F83E090E00E94E6
:1003B0003601982F812F9B838A8384E090E00E94EE
:1003C00036018C8381E098819E3D09F080E0DF91C9
:1003D000CF911F91089560E090E080E00C942C0193
:1003E000F89488E18093600088E080936000FFCFFC
:1003F0001F920F920FB60F9211242F933F934F939A
:100400005F936F937F938F939F93AF93BF93EF937C
:10041000FF9381E00E949701FF91EF91BF91AF910F
:100420009F918F917F916F915F914F913F912F910C
:100430000F900FBE0F901F901895CF93DF93EC0194
:1004400085E69CE00E948D0084E191E00E948D0091
:1004500085ED91E00E948D008DE192E00E948D007B
:100460008EED92E00E9481008981823009F45AC0A9
:10047000833009F45AC0813009F05AC081EF92E00C
:100480000E948D0085EC93E00E9481008A819B810F
:100490000E94D00083EA93E00E948D0082EE93E0F8
:1004A0000E9481008A819B81813027E0920708F4B5
:1004B00042C085EF93E00E948D008BE894E00E949B
:1004C00081008C810E9495008EE994E00E94810059
:1004D0008C8183FF04C084EA94E00E9481008C81B7
:1004E00082FF04C08BEA94E00E9481008C8181FF2E
:1004F00004C082EB94E00E9481008C8180FF04C0E4
:1005000089EB94E00E94810089EA93E00E948D00CB
:1005100080EC94E00E948D0085E69CE0DF91CF9115
:100520000C948D0086E293E0ABCF8BE593E0A8CFEF
:1005300080E993E0A5CF8130944018F087E294E001
:10054000BACF89E594E0B7CF85E69CE00E948D00A4
:1005500081E895E00E948D0082E496E00E948D0083
:1005600087E896E00E948D0088E497E00E948D0065
:100570008DE897E00E948D0082ED97E00E948D004B
:1005800087E198E00E948D008CE598E00E948D0044
:1005900081EA98E00E948D0082E699E00C94810047
:1005A000EF92FF920F931F93CF93DF93CDB7DEB7F8
:1005B000A0970FB6F894DEBF0FBECDBF8C018AE0C6
:1005C000E82EF12C098301151105E9F0C801B701E6
:1005D0000E941504892B99F482E799E00E9481001A
:1005E000C8010E94D00086E899E00E9481000E9424
:1005F00094010E94D00085E69CE00E948D00A895A1
:1006000001501109DFCFA0960FB6F894DEBF0FBEE0
:10061000CDBFDF91CF911F910F91FF90EF90089583
:1006200085E69CE00E948D008EE899E00E948D0096
:100630008DEC99E00E948D0085E69CE00E948D0083
:100640000000FECF85E69CE00E948D008EEF99E0D1
:100650000E948D0082E00E94970182E39AE00E944E
:100660008D000E94F00100D000D00F92CDB7DEB710
:100670000E94730014B714BE0FB6F894A895809129
:100680006000886180936000109260000FBE0E943D
:1006900053002FEF81EE94E0215080409040E1F72D
:1006A00000C0000085E69CE00E948D008EE59AE087
:1006B0000E948D0083E99AE00E948D0083EC9AE00D
:1006C0000E948D008EE59AE00E948D0085E69CE0F8
:1006D0000E948D008AEE9AE00E948D00CE01019664
:1006E0000E94C2018823B1F185E19BE00E948D0048
:1006F0001D83CE0101960E941D028DE39BE00E94A6
:100700008D000E94EB018BE59BE00E948D000E9412
:10071000730087EB9BE00E948D000E947D018AEEB2
:100720009BE00E948D000E94A402A8958091C000C9
:1007300087FF36C00E946600182F8FEC810F85302E
:1007400060F08FE39CE90197F1F700C000000E9480
:100750007300EBCF8DE89BE0D8CF812F0E945F0024
:1007600085E69CE00E948D000E9473001433F9F02E
:100770001533C1F1123321F0133331F00E9410030D
:100780000E9473000E9422038FEF9BE00E948D0065
:100790000E94EB0185E29CE00E948D000E94A40271
:1007A0008FE39CE90197F1F700C00000BECF8DE315
:1007B0009CE00E9481000E9494010E94D00088E386
:1007C0009CE00E948D0089E59CE00E9481008FEFF3
:1007D00098E00E94D00088E39CE00E948D000E9477
:1007E0007300DCCF86E69CE00E948D008AE99CE0E5
:1007F0000E9481000E9494010E94D00088E39CE046
:100800000E948D0082E390E00E94D0028BEA9CE07F
:100810000E9481000E9494010E94D00088E39CE025
:100820000E948D008AEB9CE0D8CFAA1BBB1B51E134
:1008300007C0AA1FBB1FA617B70710F0A61BB70B50
:10084000881F991F5A95A9F780959095BC01CD01F5
:060850000895F894FFCFAB
:100856003078003031323334353637383941424317
:1008660044454600E29594E29590E29590E2959093
:10087600E29590E29590E29590E29590E29590E26D
:100886009590E29590E29590E29590E29590E295AA
:1008960090E29590E29590E29590E29590E295909F
:1008A600E29590E29590E29590E29590E29590E23D
:1008B6009590E29590E29590E29590E29590E2957A
:1008C60090E29590E29590E29590E29590E295906F
:1008D600E29590E29590E29590E29590E29590E20D
:1008E6009590E29590E29590E29590E29590E2954A
:1008F60090E29590E29590E29590E29590E295903F
:10090600E29590E29590E29590E29590E29590E2DC
:100916009590E29590E29590E29590E29590E29519
:1009260090E2959700E2959120202020202020201B
:10093600E298A02020435241534820444554454361
:10094600544544202D20504F53542D4D4F5254455D
:100956004D20414E414C595349532020E298A02046
:10096600202020202020202020E2959100E295A042
:10097600E29590E29590E29590E29590E29590E26C
:100986009590E29590E29590E29590E29590E295A9
:1009960090E29590E29590E29590E29590E295909E
:1009A600E29590E29590E29590E29590E29590E23C
:1009B6009590E29590E29590E29590E29590E29579
:1009C60090E29590E29590E29590E29590E295906E
:1009D600E29590E29590E29590E29590E29590E20C
:1009E6009590E29590E29590E29590E29590E29549
:1009F60090E29590E29590E29590E29590E295903E
:100A0600E29590E29590E29590E29590E29590E2DB
:100A16009590E29590E29590E29590E29590E29518
:100A260090E29590E29590E29590E295A300E2958A
:100A36009120437261736820526561736F6E3A202C
:100A4600005741544348444F472054494D454F555C
:100A560054202853797374656D2048756E67292074
:100A66002020202020202020202020202020202080
:100A76002020E29591004558504C49434954204363
:100A8600524153482044554D5020285573657220D5
:100A960054726967676572656429202020202020CA
:100AA60020202020202020E2959100535441434BE2
:100AB600204F564552464C4F5720444554454354C3
:100AC60045442020202020202020202020202020D7
:100AD600202020202020202020202020E295910088
:100AE600554E4B4E4F574E202020202020202020B0
:100AF60020202020202020202020202020202020F0
:100B060020202020202020202020202020202020DF
:100B160020E2959100E2959120537461636B205019
:100B26006F696E7465722061742043726173683AEE
:100B36002000E2959120537461636B204865616CD7
:100B460074683A20004845414C54485920286C6F37
:100B56007720737461636B20757361676529202044
:100B6600202020202020202020202020202020207F
:100B7600202020E29591004D4F4445524154452096
:100B860028776174636820737461636B2064657091
:100B960074682920202020202020202020202020AA
:100BA6002020202020E29591004352495449434198
:100BB6004C2028706F737369626C65206F7665725E
:100BC600666C6F77212920202020202020202020DD
:100BD60020202020202020E2959100E29591204DB2
:100BE60043555352204D6972726F723A200020E2CB
:100BF600869220005B5744545D20005B424F445D63
:100C060020005B4558545D20005B5057525D200024
:100C1600E2959AE29590E29590E29590E29590E2BF
:100C26009590E29590E29590E29590E29590E29506
:100C360090E29590E29590E29590E29590E29590FB
:100C4600E29590E29590E29590E29590E29590E299
:100C56009590E29590E29590E29590E29590E295D6
:100C660090E29590E29590E29590E29590E29590CB
:100C7600E29590E29590E29590E29590E29590E269
:100C86009590E29590E29590E29590E29590E295A6
:100C960090E29590E29590E29590E29590E295909B
:100CA600E29590E29590E29590E29590E29590E239
:100CB6009590E29590E29590E29590E29590E29576
:100CC60090E29590E29590E29590E29590E2959D5E
:100CD60000E2948CE29480E29480E29480E2948034
:100CE600E29480E29480E29480E29480E29480E24E
:100CF6009480E29480E29480E29480E29480E2948C
:100D060080E29480E29480E29480E29480E294808F
:100D1600E29480E29480E29480E29480E29480E21D
:100D26009480E29480E29480E29480E29480E2945B
:100D360080E29480E29480E29480E29480E294805F
:100D4600E29480E29480E29480E29480E29480E2ED
:100D56009480E29480E29480E29480E29480E2942B
:100D660080E29480E29480E29480E29480E294802F
:100D7600E29480E29480E29480E29480E29480E2BD
:100D86009480E29480E29480E29480E29480E294FB
:100D96009000E2948220202020202020424C4143D3
:100DA6004B20424F5820464F52454E53494320430D
:100DB60052415348205245504F52544552202D20FF
:100DC600544F5254555245204D454E552020202013
:100DD600202020E2948200E2949CE29480E29480B7
:100DE600E29480E29480E29480E29480E29480E24D
:100DF6009480E29480E29480E29480E29480E2948B
:100E060080E29480E29480E29480E29480E294808E
:100E1600E29480E29480E29480E29480E29480E21C
:100E26009480E29480E29480E29480E29480E2945A
:100E360080E29480E29480E29480E29480E294805E
:100E4600E29480E29480E29480E29480E29480E2EC
:100E56009480E29480E29480E29480E29480E2942A
:100E660080E29480E29480E29480E29480E294802E
:100E7600E29480E29480E29480E29480E29480E2BC
:100E86009480E29480E29480E29480E29480E294FA
:100E960080E29480E294A400E29482205B315D209B
:100EA60054726967676572205761746368646F6717
:100EB6002054696D656F75742028496E66696E6980
:100EC6007465204C6F6F70202D2048616E6773210A
:100ED600292020202020202020E2948200E29482F3
:100EE600205B325D205472696767657220457870B1
:100EF6006C696369742043726173682044756D7010
:100F060020284D616E75616C205472696767657241
:100F16002920202020202020202020202020E2948C
:100F26008200E29482205B335D20436C656172200F
:100F3600454550524F4D2043726173682044617499
:100F4600612020202020202020202020202020205A
:100F5600202020202020202020202020202020208B
:100F6600202020E2948200E29482205B345D2052AD
:100F76006561642043757272656E74205374616393
:100F86006B20506F696E746572202020202020200F
:100F9600202020202020202020202020202020204B
:100FA6002020202020202020E2948200E29482202B
:100FB6005B355D2054657374204465657020526509
:100FC60063757273696F6E2028537461636B205367
:100FD6007472657373292020202020202020202071
:100FE60020202020202020202020202020E2948263
:100FF60000E29494E29480E29480E29480E2948009
:10100600E29480E29480E29480E29480E29480E22A
:101016009480E29480E29480E29480E29480E29468
:1010260080E29480E29480E29480E29480E294806C
:10103600E29480E29480E29480E29480E29480E2FA
:101046009480E29480E29480E29480E29480E29438
:1010560080E29480E29480E29480E29480E294803C
:10106600E29480E29480E29480E29480E29480E2CA
:101076009480E29480E29480E29480E29480E29408
:1010860080E29480E29480E29480E29480E294800C
:10109600E29480E29480E29480E29480E29480E29A
:1010A6009480E29480E29480E29480E29480E294D8
:1010B600980053656C656374206F7074696F6E3A3F
:1010C60020002020526563757273696F6E20646517
:1010D6007074683A2000207C2053503A20003E3E2F
:1010E6003E20456E746572696E6720696E66696E2C
:1010F600697465206C6F6F702E2E2E205761746395
:1011060068646F672077696C6C20747269676765BD
:101116007220696E207E3273203C3C3C003E3E3E8F
:101126002053797374656D2077696C6C20636170E8
:10113600747572652063726173682064756D7020C2
:10114600616E64207265736574203C3C3C003E3ED3
:101156003E20557365722D747269676765726564A2
:101166002063726173682064756D70202D20736131
:1011760076696E672073746174652E2E2E203C3C52
:101186003C003E3E3E2044756D702073617665647A
:101196002120466F7263696E672073797374656D7B
:1011A6002072657365742E2E2E203C3C3C003D3D1E
:1011B6003D3D3D3D3D3D3D3D3D3D3D3D3D3D3D3D59
:1011C6003D3D3D3D3D3D3D3D3D3D3D3D3D3D3D3D49
:1011D6003D3D3D3D3D3D3D3D3D3D3D3D3D3D3D3D39
:1011E6003D3D0020202041546D6567613332385003
:1011F60020426C61636B20426F7820466F72656E89
:10120600736963204372617368205265706F7274EC
:1012160065720020202042617265204D6574616C04
:101226002043202D204E6F2041726475696E6F2019
:101236004C6962726172696573005B424F4F545D1F
:1012460020436865636B696E6720454550524F4D74
:1012560020666F72206372617368207265706F72A8
:10126600742E2E2E005B424F4F545D202A2A2A20D0
:1012760050524556494F55532043524153482044F6
:101286004554454354454421202A2A2A005B424FAF
:101296004F545D20436C656172696E6720637261AD
:1012A600736820666C61672E2E2E005B424F4F548A
:1012B6005D204372617368206461746120636C65AC
:1012C600617265642E20526561647920666F7220B2
:1012D6006E6577206372617368657321005B424FA8
:1012E6004F545D204E6F2063726173682072657083
:1012F6006F727420666F756E642E20436C65616E26
:1013060020626F6F7421005B424F4F545D20496E1F
:10131600697469616C697A696E672057617463687C
:10132600646F672054696D65722028327320746972
:101336006D656F7574292E2E2E005B424F4F545DDE
:101346002053797374656D20726561647921003E5E
:101356003E3E20436C656172696E6720454550527A
:101366004F4D20637261736820646174612E2E2E66
:10137600203C3C3C003E3E3E20454550524F4D20D1
:10138600636C656172656421203C3C3C003E3E3ED8
:101396002043757272656E7420537461636B2050BE
:1013A6006F696E7465723A20003E3E3E2052414D92
:1013B600454E443A20003E3E3E20537461727469A5
:1013C6006E67206465657020726563757273696FF8
:1013D6006E207465737420283530206C6576656CD4
:1013E60073292E2E2E203C3C3C003E3E3E20496E6C
:1013F600697469616C2053503A20003E3E3E204697
:10140600696E616C2053503A20003E3E3E20526584
:1014160063757273696F6E207465737420636F6D84
:0C142600706C65746521203C3C3C0000AB
:00000001FF
